:100000000C945D000C9485000C9485000C94AE0259
:100010000C94AE020C94AE020C9485000C948500F6
:100020000C9485000C9485000C9485000C9485003C
:100030000C9485000C9485000C9485000C9485002C
:100040000C940C020C9485000C947C020C945602C7
:100050000C9485000C9485000C9485000C9485000C
:100060000C9485000C94850000000008000201003B
:100070000003040700000000000000000000000072
:10008000250028002B0000000000240027002A0083
:10009000040404040404040402020202020203032E
:1000A0000303030301020408102040800102040836
:1000B0001020010204081020A40311241FBECFEF5A
:1000C000D8E0DEBFCDBF11E0A0E0B1E0E2EBF7E0A9
:1000D00002C005900D92AE32B107D9F721E0AEE231
:1000E000B1E001C01D92A73DB207E1F710E0CDE5F8
:1000F000D0E004C02197FE010E94D103CC35D10786
:10010000C9F70E94B8020C94D7030C94000090E049
:10011000FC01EC55FF4F249180579F4FFC018491C7
:10012000882399F090E0880F991FFC01EA57FF4F50
:10013000A591B491FC01E458FF4F859194918FB73C
:10014000F894EC91E22BEC938FBF0895AF92BF929D
:10015000CF92DF92EF92FF920F931F93CF93DF9393
:100160006C017B018B01040F151FEB015E01AE18C2
:10017000BF08C017D10759F06991D601ED91FC91E4
:100180000190F081E02DC6010995892B79F7C50111
:10019000DF91CF911F910F91FF90EF90DF90CF9063
:1001A000BF90AF900895FC01538D448D252F30E012
:1001B000842F90E0821B930B541710F0CF96089574
:1001C00001970895FC01918D828D981761F0A28DA1
:1001D000AE0FBF2FB11D5D968C91928D9F5F9F7367
:1001E000928F90E008958FEF9FEF0895FC01918D1D
:1001F000828D981731F0828DE80FF11D858D90E08A
:1002000008958FEF9FEF0895FC01918D228D892F26
:1002100090E0805C9F4F821B91098F73992708950E
:100220008AE391E00E94040121E0892B09F420E097
:10023000822F089580E090E0892B29F00E94100120
:1002400081110C9400000895FC01A48DA80FB92F12
:10025000B11DA35ABF4F2C91848D90E001968F73EE
:100260009927848FA689B7892C93A089B1898C910D
:10027000837080648C93938D848D981306C002885C
:10028000F389E02D80818F7D80830895EF92FF9226
:100290000F931F93CF93DF93EC0181E0888F9B8DA9
:1002A0008C8D98131AC0E889F989808185FF15C063
:1002B0009FB7F894EE89FF896083E889F989808186
:1002C0008370806480839FBF81E090E0DF91CF9155
:1002D0001F910F91FF90EF900895F62E0B8D10E077
:1002E0000F5F1F4F0F731127E02E8C8D8E110CC0E6
:1002F0000FB607FCFACFE889F989808185FFF5CF31
:10030000CE010E942401F1CFEB8DEC0FFD2FF11DEA
:10031000E35AFF4FF0829FB7F8940B8FEA89FB896D
:1003200080818062CFCFCF93DF93EC01888D8823CB
:10033000B9F0AA89BB89E889F9898C9185FD03C048
:10034000808186FD0DC00FB607FCF7CF8C9185FF2D
:10035000F2CF808185FFEDCFCE010E942401E9CF4D
:10036000DF91CF91089590E0FC01E859FF4F24916F
:10037000FC01EC55FF4F3491FC01E057FF4FE49135
:10038000EE23C9F0222339F0233001F1A8F4213003
:1003900019F1223029F1F0E0EE0FFF1FE458FF4F72
:1003A000A591B4918FB7F894EC91611126C0309566
:1003B0003E233C938FBF08952730A9F02830C9F021
:1003C000243049F7809180008F7D03C080918000A8
:1003D0008F7780938000DFCF84B58F7784BDDBCFAC
:1003E00084B58F7DFBCF8091B0008F778093B00074
:1003F000D2CF8091B0008F7DF9CF3E2BDACFFC01B8
:1004000001900020E9F73197AF01481B590BBC015F
:100410008AE391E00C94A6001F920F920FB60F9200
:1004200011242F933F938F939F93AF93BF9380910A
:10043000360190913701A0913801B0913901309186
:10044000350123E0230F2D3758F50196A11DB11D6D
:10045000209335018093360190933701A0933801A2
:10046000B09339018091310190913201A091330113
:10047000B09134010196A11DB11D8093310190937B
:100480003201A0933301B0933401BF91AF919F919A
:100490008F913F912F910F900FBE0F901F90189545
:1004A00026E8230F0296A11DB11DD2CF1F920F92F5
:1004B0000FB60F9211242F933F934F935F936F9337
:1004C0007F938F939F93AF93BF93EF93FF938AE3B1
:1004D00091E00E942401FF91EF91BF91AF919F9114
:1004E0008F917F916F915F914F913F912F910F90DD
:1004F0000FBE0F901F9018951F920F920FB60F927C
:1005000011242F938F939F93EF93FF93E0914A01D0
:10051000F0914B018081E0915001F091510182FDF9
:100520001BC09081809153018F5F8F732091540184
:10053000821741F0E0915301F0E0E65CFE4F958FA9
:1005400080935301FF91EF919F918F912F910F9085
:100550000FBE0F901F9018958081F4CF1F920F92BD
:100560000FB60F9211240F900FBE0F901F90189589
:10057000789484B5826084BD84B5816084BD85B57E
:10058000826085BD85B5816085BD80916E0081608A
:1005900080936E0010928100809181008260809330
:1005A0008100809181008160809381008091800032
:1005B0008160809380008091B10084608093B1005D
:1005C0008091B00081608093B00080917A00846057
:1005D00080937A0080917A00826080937A00809183
:1005E0007A00816080937A0080917A00806880939D
:1005F0007A001092C100E0914A01F0914B0182E033
:100600008083E0914601F09147011082E09148011A
:10061000F09149018FEC808310925201E0914E01DC
:10062000F0914F0186E08083E0914C01F0914D0103
:10063000808180618083E0914C01F0914D01808147
:1006400088608083E0914C01F0914D018081806849
:100650008083E0914C01F0914D0180818F7D8083FA
:1006600082E191E00E94FF018EE191E00E94FF0192
:100670008DE00E9487008CE00E9487008BE00E9442
:10068000870088E00E94870087E00E94870086E05C
:100690000E948700C0E0D0E08AE391E00E9404015C
:1006A000181619061CF58AE391E00E94E200809377
:1006B0003001682F8AE391E00E94460181E291E0D7
:1006C0000E94FF018FE191E00E94FF0180913001C3
:1006D0008133A9F461E086E00E94B30161E087E024
:1006E0000E94B30160E088E00E94B3012097A1F26C
:1006F0000E941001882381F20E940000CDCF823336
:1007000051F461E086E00E94B30160E087E00E945E
:10071000B30161E0E8CF833359F461E08BE00E94DC
:10072000B30161E08CE00E94B30160E08DE0DCCFBA
:100730008433E1F661E08BE00E94B30160E08CE07D
:100740000E94B30161E0F2CFEAE3F1E0138212828A
:1007500088EE93E0A0E0B0E084839583A683B7831E
:1007600084E091E09183808385EC90E09587848795
:1007700084EC90E09787868780EC90E0918B808B6B
:1007800081EC90E0938B828B82EC90E0958B848B54
:1007900086EC90E0978B868B118E128E138E148EC2
:1007A0000895EE0FFF1F0590F491E02D0994F89441
:0207B000FFCF79
:1007B200000000004601A600D30093010401E200FC
:1007C200F60048656C6C6F20576F726C64000D0AFE
:0E07D20000466F756E642056616C7565000000
:00000001FF
